:100000000C9434000C9460000C9460000C9460001C
:100010000C9460000C9460000C9460000C946000E0
:100020000C9460000C9460000C9460000C946000D0
:100030000C9460000C9460000C9460000C946000C0
:100040000C9460000C9460000C9460000C946000B0
:100050000C9460000C9460000C9460000C946000A0
:100060000C9460000C94600011241FBECFEFD8E008
:10007000DEBFCDBF0E9440000C945200F894FFCF29
:100080000E945D0083E001C083E085B92FEF33ED6E
:1000900090E3215030409040E1F700C00000880F0D
:0400A00099F3F3CF0E
:1000A400EC010E9465000E946400CE010E9466007B
:0600B400CE010E94620073
:0600BA0085E584B90895FC
:0400C0000C9400009C
:0400C4000E943E0058
:0200C800089599
:0200CA00089597
:0200CC00089595
:00000001FF
